{
  "_format": "hh-sol-artifact-1",
  "contractName": "CrowdFunding",
  "sourceName": "contracts/CrowdFunding.sol",
  "abi": [
    {
      "inputs": [
        {
          "internalType": "uint256",
          "name": "",
          "type": "uint256"
        }
      ],
      "name": "campaigns",
      "outputs": [
        {
          "internalType": "address",
          "name": "owner",
          "type": "address"
        },
        {
          "internalType": "string",
          "name": "title",
          "type": "string"
        },
        {
          "internalType": "string",
          "name": "description",
          "type": "string"
        },
        {
          "internalType": "uint256",
          "name": "target",
          "type": "uint256"
        },
        {
          "internalType": "uint256",
          "name": "deadline",
          "type": "uint256"
        },
        {
          "internalType": "uint256",
          "name": "amountCollected",
          "type": "uint256"
        }
      ],
      "stateMutability": "view",
      "type": "function"
    },
    {
      "inputs": [],
      "name": "campaignsCount",
      "outputs": [
        {
          "internalType": "uint256",
          "name": "",
          "type": "uint256"
        }
      ],
      "stateMutability": "view",
      "type": "function"
    },
    {
      "inputs": [
        {
          "internalType": "address",
          "name": "_owner",
          "type": "address"
        },
        {
          "internalType": "string",
          "name": "_title",
          "type": "string"
        },
        {
          "internalType": "string",
          "name": "_description",
          "type": "string"
        },
        {
          "internalType": "uint256",
          "name": "_target",
          "type": "uint256"
        },
        {
          "internalType": "uint256",
          "name": "_deadline",
          "type": "uint256"
        }
      ],
      "name": "createCampaign",
      "outputs": [
        {
          "internalType": "uint256",
          "name": "",
          "type": "uint256"
        }
      ],
      "stateMutability": "nonpayable",
      "type": "function"
    },
    {
      "inputs": [
        {
          "internalType": "uint256",
          "name": "_id",
          "type": "uint256"
        }
      ],
      "name": "donateToCampaign",
      "outputs": [],
      "stateMutability": "payable",
      "type": "function"
    },
    {
      "inputs": [],
      "name": "getCampaigns",
      "outputs": [
        {
          "components": [
            {
              "internalType": "address",
              "name": "owner",
              "type": "address"
            },
            {
              "internalType": "string",
              "name": "title",
              "type": "string"
            },
            {
              "internalType": "string",
              "name": "description",
              "type": "string"
            },
            {
              "internalType": "uint256",
              "name": "target",
              "type": "uint256"
            },
            {
              "internalType": "uint256",
              "name": "deadline",
              "type": "uint256"
            },
            {
              "internalType": "uint256",
              "name": "amountCollected",
              "type": "uint256"
            },
            {
              "internalType": "address[]",
              "name": "donators",
              "type": "address[]"
            },
            {
              "internalType": "uint256[]",
              "name": "donations",
              "type": "uint256[]"
            }
          ],
          "internalType": "struct CrowdFunding.Campaign[]",
          "name": "",
          "type": "tuple[]"
        }
      ],
      "stateMutability": "view",
      "type": "function"
    },
    {
      "inputs": [
        {
          "internalType": "uint256",
          "name": "_id",
          "type": "uint256"
        }
      ],
      "name": "getDonaters",
      "outputs": [
        {
          "internalType": "address[]",
          "name": "",
          "type": "address[]"
        },
        {
          "internalType": "uint256[]",
          "name": "",
          "type": "uint256[]"
        }
      ],
      "stateMutability": "view",
      "type": "function"
    }
  ],
  "bytecode": "0x60806040526000600155348015601457600080fd5b5061178b806100246000396000f3fe6080604052600436106100555760003560e01c8063075843c31461005a578063141961bc1461009757806327e40d2a146100d957806342a4fda81461011757806344c89b6514610133578063a6b036331461015e575b600080fd5b34801561006657600080fd5b50610081600480360381019061007c9190610c06565b610189565b60405161008e9190610cc8565b60405180910390f35b3480156100a357600080fd5b506100be60048036038101906100b99190610ce3565b61029d565b6040516100d096959493929190610d9e565b60405180910390f35b3480156100e557600080fd5b5061010060048036038101906100fb9190610ce3565b610409565b60405161010e929190610f89565b60405180910390f35b610131600480360381019061012c9190610ce3565b610519565b005b34801561013f57600080fd5b50610148610679565b6040516101559190610cc8565b60405180910390f35b34801561016a57600080fd5b5061017361067f565b604051610180919061126f565b60405180910390f35b60008060008060015481526020019081526020016000209050428160040154106101e8576040517f08c379a00000000000000000000000000000000000000000000000000000000081526004016101df90611303565b60405180910390fd5b868160000160006101000a81548173ffffffffffffffffffffffffffffffffffffffff021916908373ffffffffffffffffffffffffffffffffffffffff1602179055508581600101908161023c919061152f565b508481600201908161024e919061152f565b50838160030181905550828160040181905550600081600501819055506001600081548092919061027e90611630565b9190505550600180546102919190611678565b91505095945050505050565b60006020528060005260406000206000915090508060000160009054906101000a900473ffffffffffffffffffffffffffffffffffffffff16908060010180546102e690611352565b80601f016020809104026020016040519081016040528092919081815260200182805461031290611352565b801561035f5780601f106103345761010080835404028352916020019161035f565b820191906000526020600020905b81548152906001019060200180831161034257829003601f168201915b50505050509080600201805461037490611352565b80601f01602080910402602001604051908101604052809291908181526020018280546103a090611352565b80156103ed5780601f106103c2576101008083540402835291602001916103ed565b820191906000526020600020905b8154815290600101906020018083116103d057829003601f168201915b5050505050908060030154908060040154908060050154905086565b606080600080848152602001908152602001600020600601600080858152602001908152602001600020600701818054806020026020016040519081016040528092919081815260200182805480156104b757602002820191906000526020600020905b8160009054906101000a900473ffffffffffffffffffffffffffffffffffffffff1673ffffffffffffffffffffffffffffffffffffffff168152602001906001019080831161046d575b505050505091508080548060200260200160405190810160405280929190818152602001828054801561050957602002820191906000526020600020905b8154815260200190600101908083116104f5575b5050505050905091509150915091565b60003490506000806000848152602001908152602001600020905080600601339080600181540180825580915050600190039060005260206000200160009091909190916101000a81548173ffffffffffffffffffffffffffffffffffffffff021916908373ffffffffffffffffffffffffffffffffffffffff1602179055508060070182908060018154018082558091505060019003906000526020600020016000909190919091505560008160000160009054906101000a900473ffffffffffffffffffffffffffffffffffffffff1673ffffffffffffffffffffffffffffffffffffffff168360405161060e906116dd565b60006040518083038185875af1925050503d806000811461064b576040519150601f19603f3d011682016040523d82523d6000602084013e610650565b606091505b5050905080156106735782826005015461066a91906116f2565b82600501819055505b50505050565b60015481565b6060600060015467ffffffffffffffff81111561069f5761069e610aa5565b5b6040519080825280602002602001820160405280156106d857816020015b6106c56109bd565b8152602001906001900390816106bd5790505b50905060005b6001548110156109b5576000806000838152602001908152602001600020905080604051806101000160405290816000820160009054906101000a900473ffffffffffffffffffffffffffffffffffffffff1673ffffffffffffffffffffffffffffffffffffffff1673ffffffffffffffffffffffffffffffffffffffff16815260200160018201805461077190611352565b80601f016020809104026020016040519081016040528092919081815260200182805461079d90611352565b80156107ea5780601f106107bf576101008083540402835291602001916107ea565b820191906000526020600020905b8154815290600101906020018083116107cd57829003601f168201915b5050505050815260200160028201805461080390611352565b80601f016020809104026020016040519081016040528092919081815260200182805461082f90611352565b801561087c5780601f106108515761010080835404028352916020019161087c565b820191906000526020600020905b81548152906001019060200180831161085f57829003601f168201915b505050505081526020016003820154815260200160048201548152602001600582015481526020016006820180548060200260200160405190810160405280929190818152602001828054801561092857602002820191906000526020600020905b8160009054906101000a900473ffffffffffffffffffffffffffffffffffffffff1673ffffffffffffffffffffffffffffffffffffffff16815260200190600101908083116108de575b505050505081526020016007820180548060200260200160405190810160405280929190818152602001828054801561098057602002820191906000526020600020905b81548152602001906001019080831161096c575b50505050508152505083838151811061099c5761099b611726565b5b60200260200101819052505080806001019150506106de565b508091505090565b604051806101000160405280600073ffffffffffffffffffffffffffffffffffffffff168152602001606081526020016060815260200160008152602001600081526020016000815260200160608152602001606081525090565b6000604051905090565b600080fd5b600080fd5b600073ffffffffffffffffffffffffffffffffffffffff82169050919050565b6000610a5782610a2c565b9050919050565b610a6781610a4c565b8114610a7257600080fd5b50565b600081359050610a8481610a5e565b92915050565b600080fd5b600080fd5b6000601f19601f8301169050919050565b7f4e487b7100000000000000000000000000000000000000000000000000000000600052604160045260246000fd5b610add82610a94565b810181811067ffffffffffffffff82111715610afc57610afb610aa5565b5b80604052505050565b6000610b0f610a18565b9050610b1b8282610ad4565b919050565b600067ffffffffffffffff821115610b3b57610b3a610aa5565b5b610b4482610a94565b9050602081019050919050565b82818337600083830152505050565b6000610b73610b6e84610b20565b610b05565b905082815260208101848484011115610b8f57610b8e610a8f565b5b610b9a848285610b51565b509392505050565b600082601f830112610bb757610bb6610a8a565b5b8135610bc7848260208601610b60565b91505092915050565b6000819050919050565b610be381610bd0565b8114610bee57600080fd5b50565b600081359050610c0081610bda565b92915050565b600080600080600060a08688031215610c2257610c21610a22565b5b6000610c3088828901610a75565b955050602086013567ffffffffffffffff811115610c5157610c50610a27565b5b610c5d88828901610ba2565b945050604086013567ffffffffffffffff811115610c7e57610c7d610a27565b5b610c8a88828901610ba2565b9350506060610c9b88828901610bf1565b9250506080610cac88828901610bf1565b9150509295509295909350565b610cc281610bd0565b82525050565b6000602082019050610cdd6000830184610cb9565b92915050565b600060208284031215610cf957610cf8610a22565b5b6000610d0784828501610bf1565b91505092915050565b610d1981610a4c565b82525050565b600081519050919050565b600082825260208201905092915050565b60005b83811015610d59578082015181840152602081019050610d3e565b60008484015250505050565b6000610d7082610d1f565b610d7a8185610d2a565b9350610d8a818560208601610d3b565b610d9381610a94565b840191505092915050565b600060c082019050610db36000830189610d10565b8181036020830152610dc58188610d65565b90508181036040830152610dd98187610d65565b9050610de86060830186610cb9565b610df56080830185610cb9565b610e0260a0830184610cb9565b979650505050505050565b600081519050919050565b600082825260208201905092915050565b6000819050602082019050919050565b610e4281610a4c565b82525050565b6000610e548383610e39565b60208301905092915050565b6000602082019050919050565b6000610e7882610e0d565b610e828185610e18565b9350610e8d83610e29565b8060005b83811015610ebe578151610ea58882610e48565b9750610eb083610e60565b925050600181019050610e91565b5085935050505092915050565b600081519050919050565b600082825260208201905092915050565b6000819050602082019050919050565b610f0081610bd0565b82525050565b6000610f128383610ef7565b60208301905092915050565b6000602082019050919050565b6000610f3682610ecb565b610f408185610ed6565b9350610f4b83610ee7565b8060005b83811015610f7c578151610f638882610f06565b9750610f6e83610f1e565b925050600181019050610f4f565b5085935050505092915050565b60006040820190508181036000830152610fa38185610e6d565b90508181036020830152610fb78184610f2b565b90509392505050565b600081519050919050565b600082825260208201905092915050565b6000819050602082019050919050565b600082825260208201905092915050565b600061100882610d1f565b6110128185610fec565b9350611022818560208601610d3b565b61102b81610a94565b840191505092915050565b600082825260208201905092915050565b600061105282610e0d565b61105c8185611036565b935061106783610e29565b8060005b8381101561109857815161107f8882610e48565b975061108a83610e60565b92505060018101905061106b565b5085935050505092915050565b600082825260208201905092915050565b60006110c182610ecb565b6110cb81856110a5565b93506110d683610ee7565b8060005b838110156111075781516110ee8882610f06565b97506110f983610f1e565b9250506001810190506110da565b5085935050505092915050565b60006101008301600083015161112d6000860182610e39565b50602083015184820360208601526111458282610ffd565b9150506040830151848203604086015261115f8282610ffd565b91505060608301516111746060860182610ef7565b5060808301516111876080860182610ef7565b5060a083015161119a60a0860182610ef7565b5060c083015184820360c08601526111b28282611047565b91505060e083015184820360e08601526111cc82826110b6565b9150508091505092915050565b60006111e58383611114565b905092915050565b6000602082019050919050565b600061120582610fc0565b61120f8185610fcb565b93508360208202850161122185610fdc565b8060005b8581101561125d578484038952815161123e85826111d9565b9450611249836111ed565b925060208a01995050600181019050611225565b50829750879550505050505092915050565b6000602082019050818103600083015261128981846111fa565b905092915050565b7f54686520646561646c696e652073686f756c642062652061206461746520696e60008201527f2074686520667574757265000000000000000000000000000000000000000000602082015250565b60006112ed602b83610d2a565b91506112f882611291565b604082019050919050565b6000602082019050818103600083015261131c816112e0565b9050919050565b7f4e487b7100000000000000000000000000000000000000000000000000000000600052602260045260246000fd5b6000600282049050600182168061136a57607f821691505b60208210810361137d5761137c611323565b5b50919050565b60008190508160005260206000209050919050565b60006020601f8301049050919050565b600082821b905092915050565b6000600883026113e57fffffffffffffffffffffffffffffffffffffffffffffffffffffffffffffffff826113a8565b6113ef86836113a8565b95508019841693508086168417925050509392505050565b6000819050919050565b600061142c61142761142284610bd0565b611407565b610bd0565b9050919050565b6000819050919050565b61144683611411565b61145a61145282611433565b8484546113b5565b825550505050565b600090565b61146f611462565b61147a81848461143d565b505050565b5b8181101561149e57611493600082611467565b600181019050611480565b5050565b601f8211156114e3576114b481611383565b6114bd84611398565b810160208510156114cc578190505b6114e06114d885611398565b83018261147f565b50505b505050565b600082821c905092915050565b6000611506600019846008026114e8565b1980831691505092915050565b600061151f83836114f5565b9150826002028217905092915050565b61153882610d1f565b67ffffffffffffffff81111561155157611550610aa5565b5b61155b8254611352565b6115668282856114a2565b600060209050601f8311600181146115995760008415611587578287015190505b6115918582611513565b8655506115f9565b601f1984166115a786611383565b60005b828110156115cf578489015182556001820191506020850194506020810190506115aa565b868310156115ec57848901516115e8601f8916826114f5565b8355505b6001600288020188555050505b505050505050565b7f4e487b7100000000000000000000000000000000000000000000000000000000600052601160045260246000fd5b600061163b82610bd0565b91507fffffffffffffffffffffffffffffffffffffffffffffffffffffffffffffffff820361166d5761166c611601565b5b600182019050919050565b600061168382610bd0565b915061168e83610bd0565b92508282039050818111156116a6576116a5611601565b5b92915050565b600081905092915050565b50565b60006116c76000836116ac565b91506116d2826116b7565b600082019050919050565b60006116e8826116ba565b9150819050919050565b60006116fd82610bd0565b915061170883610bd0565b92508282019050808211156117205761171f611601565b5b92915050565b7f4e487b7100000000000000000000000000000000000000000000000000000000600052603260045260246000fdfea2646970667358221220e90daecf1c2813481af5aeebc9bf2ace3e6f1838cf838f9f18039cffc858c70364736f6c634300081c0033",
  "linkReferences": {},
  "deployedLinkReferences": {}
}